:020000040800F2
:10000000980500200101000811180008A914000833
:100010000D180008A9010008E91C000800000000F4
:10002000000000000000000000000000411800086F
:100030000D02000800000000151800085D180008F7
:100040001B0100081B0100081B0100081B01000820
:100050001B0100081B0100081B0100081B01000810
:100060001B0100080F0200081B0100081B0100080B
:100070001B0100081B0100081B0100081B010008F0
:100080001B0100081B0100081B0100081B010008E0
:100090001B0100081B0100081B0100081B010008D0
:1000A0001B0100082D1900081B0100081B01000896
:1000B000591900087D190008000000001B01000804
:1000C0001B01000800000000000000001B010008E8
:1000D000000000001B010008691C0008000000006F
:1000E0001B0100081B0100081B010008DFF80CD0F1
:1000F00000F02AF800480047911D000898050020EC
:100100000648804706480047FEE7FEE7FEE7FEE7B1
:10011000FEE7FEE7FEE7FEE7FEE7FEE7CF18000892
:10012000ED000008D2B201E000F8012B491EFBD21D
:1001300070470022F6E710B513460A4604461946F2
:10014000FFF7F0FF204610BD064C074D06E0E068C3
:1001500040F0010394E8070098471034AC42F6D30E
:10016000FFF7C8FFCC1E0008EC1E000810B50821E0
:100170000A4800F04DFA0A4908700846007828B984
:100180000122D103074800F04BFA05E000224FF4AA
:100190000041044800F044FA10BD0000000C01408A
:1001A000000000200008014000BFFEE738B5002035
:1001B00000900A2412480078B42818D1C420009076
:1001C0001048006840F008000E49086009E04FF64A
:1001D000FF73012269460C4801F0FCF8322000F060
:1001E0004BF8201EA4F10101CCB2F0D101E00020B7
:1001F00000900020024908709DF8000038BD000002
:10020000220000200004014054010020704710B576
:10021000082000F069F810BD08B5002000901048D3
:100220000078012819D100200E49087004200090A0
:1002300000200D49096848620B480068006840F0DA
:1002400001000949096808604FF6FF7301226946F9
:10025000064801F0BFF8012008BD0020FCE70000BF
:10026000230000202200002038000020540100203C
:1002700072B600BFFEE7000070B5044600F0D6F984
:1002800006462546681C10B104480078054400BFA6
:1002900000F0CCF9801BA842FAD370BD10000020FA
:1002A000082818D10C490968096841F001010A4A77
:1002B0001268116009490968096841F00101074A9B
:1002C000126811600649096821F00801044A1160AA
:1002D0000121044A11707047C80000203800002036
:1002E000000401402300002010B5044604480068C3
:1002F000204020B1024804602046FFF7D1FF10BD26
:10030000140401402DE9F84703460022944666E1B3
:100310004FF0010808FA02F4D1F8008008EA04005E
:10032000A0427DD1DFF8CCA2D1F80480A8EB0A0965
:10033000D0453AD014DCB8F1030F50D009DCB8F145
:10034000000F31D0B8F1010F1CD0B8F1020F49D124
:1003500020E0B8F1110F18D0B8F1120F42D11EE011
:10036000B9F5881F25D006DCB9F5803F20D0B9F556
:10037000801F37D11AE0B9F5001F18D0B9F5041F56
:1003800030D117E0D1F80CC02DE0D1F80C8008F185
:10039000040C28E0D1F80C8008F1080C23E0D1F817
:1003A0000C8008F10C0C1EE000BF00BF00BF00BFB6
:1003B00000BF00BFD1F80880B8F1000F02D14FF0A4
:1003C000040C0BE0D1F80880B8F1010F03D14FF015
:1003D000080C1C6102E04FF0080C5C6103E04FF078
:1003E000000C00E000BF00BFFF2801D8984601E0E4
:1003F00003F104084646FF2802D84FEA820803E0CA
:10040000A2F108084FEA88084746D6F800804FF066
:100410000F0909FA07F928EA09080CFA07F900E0B8
:1004200085E048EA0908C6F80080D1F8048008F0A1
:100430008058B8F1805F7AD100BFDFF8BC81D8F86E
:10044000188048F00108DFF8B091C9F81880C84654
:10045000D8F8188008F00108CDF8008000BF00BF70
:100460004FEAB9384FEA920958F829504FEA827892
:100470004FEA18794FF00F0808FA09F825EA08053D
:10048000DFF87881434502D14FF000080FE0DFF834
:100490007081434502D14FF0010808E0DFF8648124
:1004A000434502D14FF0020801E04FF003084FEA44
:1004B00082794FEA197908FA09F848EA0505DFF860
:1004C00048814FEA920948F82950D1F8048008F48D
:1004D0008038B8F5803F0AD1DFF83081D8F8008045
:1004E00048EA0008DFF82491C9F8008009E0DFF845
:1004F0001C81D8F8008028EA0008DFF81091C9F8BC
:100500000080D1F8048008F40038B8F5003F0FD11E
:10051000DFF8F88008F10408D8F8008048EA0008FD
:10052000DFF8E89009F10409C9F800800EE055E011
:10053000DFF8D88008F10408D8F8008028EA00081D
:10054000DFF8C89009F10409C9F80080D1F80480E7
:1005500008F48018B8F5801F0ED1DFF8B08008F1DC
:100560000808D8F8008048EA0008DFF8A09009F1F0
:100570000809C9F800800DE0DFF8908008F108084C
:10058000D8F8008028EA0008DFF8809009F108090F
:10059000C9F80080D1F8048008F40018B8F5001FED
:1005A0000ED1DFF8688008F10C08D8F8008048EA1E
:1005B0000008DFF8589009F10C09C9F800800DE037
:1005C000DFF8488008F10C08D8F8008028EA000815
:1005D000DFF8389009F10C09C9F80080521CD1F8F5
:1005E000008028FA02F8B8F1000F7FF491AEBDE860
:1005F000F8870000000011100010024000080140C0
:10060000000C0140001001400800014000040140BE
:10061000024693680B400BB1012000E000207047B8
:100620000AB1016101E00B040361704701480068F1
:10063000704700000800002070B504460CB9012086
:1006400070BD4CF6CC402168086045F255502168D9
:100650000860D4E9001048602168A0688860FFF74E
:10066000E5FF05460BE0FFF7E1FF401B272806D911
:100670002068C06800F0030008B10320E0E72068AC
:10068000C06800F003000028EDD14AF6AA202168D6
:1006900008600020D4E70000034800680349097897
:1006A000084401490860704708000020100000203D
:1006B00010B50848006840F01000064908600320A3
:1006C00000F0A8F80F2000F007F800F02BF8002049
:1006D00010BD00000020024070B504460E480078AE
:1006E0004FF47A71B1FBF0F00C490968B1FBF0F5F9
:1006F000284600F00BFC08B1012070BD102C07D279
:1007000000222146501E00F047F80548046001E031
:100710000120F2E70020F0E7100000201400002084
:100720000C00002008B500BF1148806940F00100AE
:100730000F4988610846806900F00100009000BF01
:1007400000BF00BF0846C06940F08050C86108463D
:10075000C06900F08050009000BF00BF00BF054995
:10076000486820F0E06040F00070486000BF08BDBD
:10077000001002400000014001460846002809DB45
:1007800000F01F0301229A4043099B0003F1E0237C
:10079000C3F8002100BF70472DE9F05F80460D4689
:1007A0001646002701F0AAFA074639462A4633467C
:1007B00001F00700C0F1070ABAF1040F02D94FF0A7
:1007C000040A01E0C0F1070AD14600F1040ABAF1B7
:1007D000070F02D24FF0000A01E0A0F1030AD4464D
:1007E0004FF0010A0AFA09FAAAF1010A0AEA020A12
:1007F0000AFA0CFA4FF0010B0BFA0CFBABF1010BF0
:100800000BEA030B4AEA0B042146404601F07EFA4C
:10081000BDE8F09F00BF00F00702064B19684FF6D5
:10082000FF031940044B0B4343EA0221014B1960BB
:1008300000BF70470CED00E00000FA0570B50446FB
:100840000D460CB9012070BD5A48006800F0070041
:10085000A8420ED25748006820F0070028435549A7
:1008600008600846006800F00700A84201D0012097
:10087000E9E7207800F0020002281DD1207800F07E
:100880000400042805D14C48406840F4E0604A491F
:100890004860207800F00800082805D146484068E4
:1008A00040F46050444948604348406820F0F000FC
:1008B000A168084340494860207800F0010078B3FF
:1008C0006068012806D13C48006800F4003090B907
:1008D0000120B8E76068022806D13748006800F0B8
:1008E000007040B90120AEE73348006800F0020014
:1008F00008B90120A7E73048406820F0030061688C
:1009000008432D494860FFF791FE064609E0FFF7CE
:100910008DFE801B41F28831884202D9032092E784
:1009200007E02548406800F00C006168B0EB810FDB
:10093000EDD12048006800F00700A8420ED91D48FC
:10094000006820F0070028431A490860084600683C
:1009500000F00700A84201D0012074E7207800F0E1
:100960000400042807D11448406820F4E060E168DE
:10097000084311494860207800F00800082808D191
:100980000D48406820F46050216940EAC1000A49DE
:10099000486000F03FF808494968C1F30311074A6D
:1009A000515CC8400649086006480068FFF794FE9D
:1009B000002048E70020024000100240B41E00085A
:1009C000140000200C00002001480068704700005F
:1009D0001400002000B5FFF7F7FF04494968C1F390
:1009E0000221034A515CC84000BD000000100240D3
:1009F000C41E000800B5FFF7E7FF04494968C1F3CA
:100A0000C221034A515CC84000BD000000100240F2
:100A1000C41E0008F0B585B00FF26C0C9CE8E01025
:100A200001A8A0E8E0101CA52D6800950021002277
:100A3000002300240020194D696801F00C05F5B170
:100A4000042D02D0082D19D101E0154819E001AD9F
:100A5000C1F38346AC5D01F4803555B10F4D6D682F
:100A6000C5F340451DF805200D4D6543B5FBF2F378
:100A700002E00C4D04FB05F3184602E000BF0848F5
:100A800000BF00BF05B0F0BD02030405060708095A
:100A90000A0B0C0D0E0F1010010200000010024096
:100AA00000127A0000093D00F8B504460CB9012097
:100AB000F8BD207800F00100002878D0F8484068A0
:100AC00000F00C0004280CD0F548406800F00C0041
:100AD000082811D1F248406800F48030B0F5803F1A
:100AE0000AD1EF48006800F4003000285FD0606849
:100AF00000285CD10120DBE700BF6068B0F5803FD3
:100B000006D1E748006840F48030E549086028E0F5
:100B1000606858B9E248006820F48030E049086015
:100B20000846006820F4802008601AE06068B0F58C
:100B3000A02F0BD1DA48006840F48020D849086023
:100B40000846006840F4803008600AE0D448006835
:100B500020F48030D24908600846006820F48020E4
:100B6000086000BF606888B1FFF760FD054606E0D9
:100B7000FFF75CFD401B642801D9032098E7C848B3
:100B8000006800F400300028F2D010E0FFF74EFDBE
:100B9000054606E0FFF74AFD401B642801D9032003
:100BA00086E7BF48006800F400300028F2D12078C2
:100BB00000F00200022857D1B948406800F00C004C
:100BC00050B1B748406800F00C00082818D1B4486C
:100BD000406800F4803098B9B148006800F0020025
:100BE00020B12069012801D0012061E7AC480068EC
:100BF00020F0F800616940EAC100A949086033E0CB
:100C00002069E8B10120A7490860FFF70FFD0546FC
:100C100006E0FFF70BFD401B022801D9032047E740
:100C20009F48006800F002000028F2D09C4800684D
:100C300020F0F800616940EAC1009949086013E0BA
:100C4000002098490860FFF7F1FC054606E0FFF731
:100C5000EDFC401B022801D9032029E790480068D9
:100C600000F002000028F2D1207800F008000828E7
:100C70002DD1A069B8B101208B490860FFF7D6FCDF
:100C8000054606E0FFF7D2FC401B022801D90320ED
:100C90000EE78348406A00F002000028F2D00120ED
:100CA00000F0BAFD13E000207F490860FFF7BEFCAA
:100CB000054606E0FFF7BAFC401B022801D90320D5
:100CC000F6E67748406A00F002000028F2D120786A
:100CD00000F00400042873D100277148C06900F0B7
:100CE000805070B900BF6E48C06940F080506C49B8
:100CF000C8610846C06900F08050009000BF00BF86
:100D000001276A48006800F48070B0B9674800683D
:100D100040F4807065490860FFF788FC054606E0EE
:100D2000FFF784FC401B642801D90320C0E65F481C
:100D3000006800F480700028F2D000BFE06801284D
:100D400006D15748006A40F001005549086227E083
:100D5000E06858B95248006A20F001005049086222
:100D60000846006A20F00400086219E0E0680528DF
:100D70000BD14B48006A40F004004949086208461C
:100D8000006A40F0010008620AE04548006A20F06D
:100D90000100434908620846006A20F00400086226
:100DA00000BFE068A0B1FFF741FC054609E0FFF78E
:100DB0003DFC401B41F28831884202D9032077E68E
:100DC00022E03748006A00F002000028EFD012E06D
:100DD000FFF72CFC054608E0FFF728FC401B41F21A
:100DE0008831884201D9032062E62D48006A00F06C
:100DF00002000028F0D1012F05D12948C06920F058
:100E000080502749C86100BFE069C8B324484068E2
:100E100000F00C00082860D0E069022848D10020CA
:100E200020490866FFF702FC054606E0FFF7FEFBD7
:100E3000401B022801D903203AE61948006800F057
:100E400000700028F2D1206AB0F5803F07D1144825
:100E5000406820F40030A168084311494860D4E993
:100E6000080108430E49496821F4741108430C49EC
:100E7000486001200B490866FFF7D8FB054607E0EC
:100E80003DE0FFF7D3FB401B022801D903200FE60A
:100E90000348006800F000700028F2D02FE0000046
:100EA00000100240000042428004424200700040B4
:100EB000002014490866FFF7B9FB054606E0FFF776
:100EC000B5FB401B022801D90320F1E50E4800685C
:100ED00000F000700028F2D111E0E069012800D193
:100EE000E6E50948466806F48031206A814204D16B
:100EF00006F47011606A814201D00120D8E500201B
:100F0000D6E50000000042420010024070B50446E1
:100F10002546681EB0F1807F01D301200FE0681ED6
:100F20004FF0E02148610F214FF0FF3000F0EEFE5E
:100F300000204FF0E021886107200861002070BD8B
:100F400030B502460B4600BF92F83C00012801D1A3
:100F5000022030BD012082F83C0000BF022082F850
:100F60003D00106844681068816824F070041868B7
:100F70000443106844600E4D1068A84207D0106802
:100F8000B0F1804F03D00B4D1068A84205D121F07D
:100F900080015868014310688160012082F83D009B
:100FA00000BF002082F83C0000BF00BFD1E7000076
:100FB000002C01400004004010B504460CB901208B
:100FC00010BD94F83D0028B9002084F83C0020466C
:100FD00000F026F8022084F83D00211D206800F072
:100FE0000DFD012084F8460000BF84F83E00012179
:100FF0003F200155402001554120015500BF00BF51
:10100000012084F842004320015544200155452029
:10101000015500BF012084F83D000020D0E700000A
:1010200038B5044628492068884216D100BF2748B1
:10103000806940F40060254988610846806900F4B1
:101040000060009000BF00BF002211461920FFF78A
:10105000A3FB1920FFF790FB34E02068B0F1804F2C
:1010600016D100BF1948C06940F001001749C86196
:101070000846C06900F00100009000BF00BF0022D8
:1010800011461C20FFF788FB1C20FFF775FB19E0B9
:101090000F492068884215D100BF0C48C06940F054
:1010A00002000A49C8610846C06900F002000090C9
:1010B00000BF00BF002211461D20FFF76DFB1D2061
:1010C000FFF75AFB38BD0000002C01400010024021
:1010D00000040040014691F83D00012801D00120A4
:1010E0007047022081F83D000868C06840F00100A8
:1010F0000B68D860104B0868984207D00868B0F1B8
:10110000804F03D00D4B086898420CD10868806866
:1011100000F00702062A0CD00868006840F00100C1
:101120000B68186005E00868006840F001000B6873
:1011300018600020D4E70000002C014000040040AB
:101140002DE9F04104460D4600BF94F83C0001280B
:1011500002D10220BDE8F081012084F83C0000BFEC
:10116000022084F83D002068866826F0770626F481
:101170007F46206886602868502833D00CDC202801
:1011800050D004DC00284BD0102851D149E0302841
:1011900049D040284CD139E060282DD0702807D0A4
:1011A000B0F5805F03D0B0F5005F41D10DE040E0C5
:1011B000D5E902136A68206800F052FC206886684E
:1011C00046F077062068866033E0D5E902136A6846
:1011D000206800F045FC2068806840F48040216869
:1011E000886026E0EA686968206800F04DFC5021BC
:1011F000206800F040FC1CE0EA686968206800F0A4
:1012000056FC6021206800F036FC12E0EA6869684C
:10121000206800F039FC4021206800F02CFC08E038
:1012200000BF00BF00BF2968206800F024FC00E078
:1012300000BF00BF012084F83D0000BF002084F8FB
:101240003C0000BF00BF85E710B504460CB9012083
:1012500010BDA06900B100E000BF94F83D0028B9BE
:10126000002084F83C00204600F028F8242084F870
:101270003D002068C06820F400502168C860204606
:1012800000F03EFC2068006920F49040216808616D
:101290002068406920F02A00216848612068C06801
:1012A00040F400502168C86000202064202084F8A9
:1012B0003D0084F83E000020CAE7000010B586B06B
:1012C0000446002002900390049005903C49206859
:1012D00088422FD100BF3B48806940F480403949A3
:1012E00088610846806900F48040019000BF00BF1B
:1012F00000BF0846806940F00400886108468069A4
:1013000000F00400019000BF00BF481502900220C9
:1013100003900320059002A92B48FEF7F3FF4FF43A
:101320008060029000200390049002A92648FEF7F6
:10133000E9FF42E02549206888423ED100BF2148AC
:10134000C06940F400301F49C8610846C06900F414
:101350000030019000BF00BF00BF0846806940F028
:10136000040088610846806900F00400019000BF15
:1013700000BF04200290022003900320059002A9E0
:101380001148FEF7BFFF08200290002003900120C3
:10139000049002A90C48FEF7B5FF00221146262052
:1013A000FFF7FAF92620FFF7E7F909480068C06857
:1013B00040F0200006490968C86006B010BD000072
:1013C0000038014000100240000801400044004085
:1013D000540100202DE9F84F04460E461746994661
:1013E0004FF0000A94F83D0020285AD106B117B9F1
:1013F0000120BDE8F88F00BF94F83C00012801D11E
:101400000220F6E7012084F83C0000BF00202064A1
:10141000212084F83D00FFF709F98246A784E7847C
:10142000A068B0F5805F04D1206910B90025B046EE
:1014300002E035464FF0000800BF002084F83C0071
:1014400000BF1BE05346002280212046CDF80090CB
:1014500000F0D4FB08B10320CBE745B9B8F8000091
:10146000C0F308002168486008F1020803E028780A
:10147000216848606D1CE08C401EE084E08C0028F0
:10148000E0D15346002240212046CDF8009000F0E4
:10149000B5FB08B10320ACE7202084F83D00002014
:1014A000A7E70220A5E7000002A000F01FFC00BF94
:1014B000FEE70000486172644661756C745F657296
:1014C000726F72210000000000B585B0002001900D
:1014D00002900390049000BF2F48806940F02000E4
:1014E0002D4988610846806900F02000009000BF07
:1014F00000BF00BF0846806940F0040088610846CC
:10150000806900F00400009000BF00BF00BF0846E3
:10151000806940F0080088610846806900F0080092
:10152000009000BF00BF01224FF440511B48FFF75D
:1015300077F80122D1031A48FFF772F84FF44050B0
:10154000019001200290002003900320049001A943
:101550001248FEF7D7FE4FF40040019001200290A0
:1015600003900320049001A90D48FEF7CBFE08204C
:1015700001900C4802900020039001A90748FEF753
:10158000C1FE002211460920FFF706F90920FFF7E6
:10159000F3F805B000BD000000100240000C01404F
:1015A000000801400000111010B507480749086005
:1015B0000020486040F6FF7104488160FFF73CF866
:1015C00008B1FEF755FE10BD003000402C00002091
:1015D00000B587B00020039004900590069001901C
:1015E000029022482249086048F69F404860002146
:1015F0001F4881600921C160002101614161802192
:101600008161FFF7D9FC08B1FEF732FE4FF480503C
:10161000039003A91648FFF793FD08B1FEF728FED3
:1016200000200190029001A91148FFF789FC08B140
:10163000FEF71EFE0E48FFF74DFD00BF0C48006888
:10164000006A41F21111084068B909480068006A4F
:101650008910084038B906480068006820F0010089
:1016600003490968086000BF07B000BD002C0140B5
:101670003800002000B587B000200390049005904A
:101680000690019002904FF080401849086048F69B
:101690009F4048600021154881606321C16000219E
:1016A00001618161FFF788FC08B1FEF7E1FD4FF4AD
:1016B0008050039003A90D48FFF742FD08B1FEF7E3
:1016C000D7FD00200190029001A90848FFF738FCDF
:1016D00008B1FEF7CDFD6FF001000449096808610B
:1016E0000248FFF7F7FC07B000BD000080000020B3
:1016F00000B587B0002003900490059006900190FB
:10170000029024482449086048F69F404860002120
:1017100021488160C721C160002101618161FFF71B
:101720004BFC08B1FEF7A4FD4FF48050039003A9D1
:101730001948FFF705FD08B1FEF79AFD002001905A
:10174000029001A91448FFF7FBFB08B1FEF790FDDA
:101750006FF001001049096808610F48FFF7BAFCF3
:1017600000BF0D480068006A41F21111084068B9D5
:1017700009480068006A8910084038B906480068BE
:10178000006820F0010004490968086000BF07B044
:1017900000BD000000040040C800002010B50B4848
:1017A0000B4908604FF4E13048600021084881602F
:1017B000C16001610C21416100218161C161FFF7BC
:1017C00043FD08B1FEF754FD10BD00000038014094
:1017D0001001002010B50B480B4908604FF4E130B0
:1017E0004860002108488160C16001610C214161AD
:1017F00000218161C161FFF727FD08B1FEF738FDC7
:1018000010BD0000004400405401002000BFFEE76E
:1018100000BFFEE77047000008B508490968C9081D
:101820004FF47A72B1FBF2F14143009100BF00BF67
:1018300000994A1E00920029F9D108BD1400002029
:1018400070470000002004490978F42903D10120E1
:101850000021014A117070472200002010B5FEF7E8
:101860001BFF10BD00B58FB0282105A8FEF761FC55
:1018700014216846FEF75DFC092005904FF4803086
:10188000069000200790012009900B9002200C90F8
:10189000C1030D914FF4E0110E9105A8FFF704F973
:1018A00008B1FEF7E5FC0F20009002200190002017
:1018B00002904FF48060039000200490022168465B
:1018C000FEF7BCFF08B1FEF7D3FC0FB000BD7047B8
:1018D00000BF11480068006A41F21111084068B960
:1018E0000D480068006A8910084038B90A48006845
:1018F000006820F0010008490968086000BF002066
:101900000549096848620549087005490870054994
:101910000870054908707047380000202200002038
:101920002300002002000020240000200848006856
:10193000006900F0010048B16FF001000449096836
:10194000086104480078401C024908707047000094
:10195000380000200200002010B507480068006928
:1019600000F0010030B16FF001000349096808611F
:10197000FEF7FCFB10BD0000800000201C48006842
:10198000006900F0010088B36FF001001849096890
:10199000086118480088401C1649088008460088DD
:1019A000322823DD00BF12480068006A41F211119D
:1019B000084068B90E480068006A8910084038B9C4
:1019C0000B480068006820F00100094909680860B8
:1019D00000BF00200649096848620748006840F0D7
:1019E000080005490860002002490880704700008F
:1019F000C8000020040000200004014010B5026867
:101A0000154B984205D0B0F1804F02D0134B98424D
:101A100003D122F070024B681A430F4B984205D055
:101A2000B0F1804F02D00D4B984203D122F44072A6
:101A3000CB681A4322F080034C6943EA0402026037
:101A40008B68C3620B688362034B984201D10B69B8
:101A500003630123436110BD002C014000040040DA
:101A600030B50C46816821F47F4142EA03252543C5
:101A70002943816030BD0A46816821F0700142F03F
:101A8000070319438160704730B50B461446026A5C
:101A9000056A25F001050562816921F0F00141EA3E
:101AA000041122F00A021A438161026230BD30B58E
:101AB0000B461446056A25F0100505628169026A25
:101AC00021F4704141EA043122F0A00242EA0312FB
:101AD0008161026230BD0000074800780A2807D102
:101AE00006480078401C054908700020024908702B
:101AF0000248007870470000020000202400002007
:101B000070B504462168096921F44051E268114327
:101B1000226811612269A1681143626941EA0205E4
:101B20002168C96841F20C62914329432268D1605F
:101B30002168496921F44071A26911432268516109
:101B40002D4A2168914202D1FEF754FF01E0FEF7D1
:101B500041FF00EBC00101EB001162689200B1FB94
:101B6000F2F100EBC00202EB001263689B00B2FBD3
:101B7000F3F26423B2FBF3F202EBC20303EB0212B3
:101B8000A1EB8201322202EB01116422B1FBF2F1DE
:101B900001F0F00100EBC00202EB001263689B0051
:101BA000B2FBF3F26423B2FBF3F201EB021200EB9F
:101BB000C00101EB001163689B00B1FBF3F100EB86
:101BC000C00303EB00136668B600B3FBF6F36426AC
:101BD000B3FBF6F303EBC30606EB0313A1EB8301A0
:101BE000322303EB01116423B1FBF3F101F00F0188
:101BF00011442268916070BD003801402DE9F04128
:101C000004460D4617469846069E21E0701CF8B122
:101C10002EB1FEF70BFDA0EB0800B04218D92068EA
:101C2000C06820F4D0702168C8602068406920F046
:101C3000010021684861202084F83D0084F83E00BE
:101C400000BF002084F83C0000BF0320BDE8F08105
:101C5000206800682840A84201D1012000E000204F
:101C6000B842D3D00020F1E71B4800680068C0F3F9
:101C7000401078B36FF020001749096808601648D3
:101C8000006840681549087008460078142822D179
:101C9000012080F3138800BF00BF00BF00BF00BF5A
:101CA00000BFBFF34F8F00BF00BF00BF0C480068EC
:101CB00000F4E0600B490843001D0949086000BFBB
:101CC00000BF00BFBFF34F8F00BF00BF00BF00BF0A
:101CD00000BFFDE7FFE7704754010020220000200D
:101CE0000CED00E00000FA0500BFFEE7014A0249E2
:101CF00000F02FB8751D0008280000200248006879
:101D0000C0F30220704700000CED00E010B5002881
:101D100004DB0A07130E054A135406E00A07140EE3
:101D2000034A00F00F031B1FD45410BD00E400E071
:101D300018ED00E002E008C8121F08C1002AFAD11D
:101D400070477047002001E001C1121F002AFBD13B
:101D500070472DE9F04116460F460446002503E082
:101D60003946B047641C6D1C20780028F8D12846FD
:101D7000BDE8F08113B50C464FF6FF7301226946AA
:101D80000248FFF727FB00981CBD0000100100204F
:101D90001CB50025002600270024FEF789FCFFF76C
:101DA00061FDFFF791FBFFF7F9FCFFF711FCFFF76F
:101DB000FBFBFFF70FFDFFF79BFCFFF75BFC00222F
:101DC0004FF440512D48FEF72BFC00224FF4004108
:101DD0002B48FEF725FC2B48006820F00800294915
:101DE0000860A420019010E04FF6FF73012201A9C2
:101DF0002548FFF7EFFA25A0FFF778FF4FF4C870EA
:101E0000FEF73AFAFEF7D2F90546002DECD026A0EF
:101E1000FFF76CFF30E0FFF75FFE0446FEF7FCF9CA
:101E2000064626E0FFF70EFD0746012F05D10020EC
:101E300007460646FFF74CFD1DE0FFF74DFEA042AA
:101E400016D0FFF749FE042141EA0010C0B200900D
:101E50004FF6FF73012269460B48FFF7BBFAFFF705
:101E60003BFE04460A2C03D10026FFF731FD02E0B9
:101E700000BF012ED6D000BFCDE70000000C01400E
:101E8000000801400004014054010020B5C8B4FD21
:101E9000D3EBB6A8CAB1C6F7D6F7BBFAC1ACBDD36F
:101EA0002E2E2E0D0A000000C1ACBDD3B3C9B9A6B9
:101EB0000D0A000000000000000000000102030401
:101EC000060708090000000001020304EC1E0008D8
:101ED000000000202C000000341D0008181F00081E
:101EE0002C0000206C050000441D000800000000CC
:101EF00000000000000000001000000001000000D1
:101F00000024F4000000010804040001C2000000E5
:081F10000000000000000000C9
:04000005080000ED02
:00000001FF
